:100000000C9496000C94AB000C94AB000C94AB00D9
:100010000C94AB000C94AB000C94AB000C94AB00B4
:100020000C94AB000C94AB000C94AB000C94AB00A4
:100030000C94AB000C94AB000C94AB000C94AB0094
:100040000C94AB000C94AB000C94AB000C94AB0084
:100050000C94AB00B900D200EB0004011C011C01A0
:100060001C011C011C011C011C011C011C011C01A8
:100070001C011C011C011C011C011C011C011C0198
:100080001C011C011C011C011C011C011C011C0188
:100090001C011C01B900D200EB000401290142013E
:1000A0005B0174018C018C018C018C018C018C0131
:1000B0008C018C018C018C018C018C018C018C01D8
:1000C0008C018C018C018C018C018C018C018C01C8
:1000D0008C018C018C018C018C018C012901420165
:1000E0005B0174019A01A101A801AF01B501B5013D
:1000F000B501B501B501B501B501B501B501B50150
:10010000B501B501B501B501B501B501B501B5013F
:10011000B501B501B501B501B501B501B501B5012F
:10012000B501B5019A01A101A801AF0111241FBEBB
:10013000CFE5D8E0DEBFCDBF10E0A0E6B0E0EEEF47
:10014000F9E002C005900D92AE3AB107D9F70E94CE
:1001500099020C94FD040C94000090E0FC01E15421
:10016000F109E432F10508F067C0E65DFF4F0C9439
:10017000F704413059F42AB381E090E002C0880FBF
:10018000991F6A95E2F7822B8ABB08952AB381E012
:1001900090E002C0880F991F6A95E2F7809582234C
:1001A0008ABB0895413059F427B381E090E002C042
:1001B000880F991F6A95E2F7822B87BB089527B3B2
:1001C00081E090E002C0880F991F6A95E2F7809560
:1001D000822387BB0895413059F424B381E090E035
:1001E00002C0880F991F6A95E2F7822B84BB08959D
:1001F00024B381E090E002C0880F991F6A95E2F76E
:100200008095822384BB0895413059F421B381E065
:1002100090E002C0880F991F6A95E2F7822B81BB9C
:10022000089521B381E090E002C0880F991F6A957C
:10023000E2F78095822381BB089590E0FC01E154B0
:10024000F109E432F10508F067C0E25BFF4F0C945E
:10025000F704413059F42BB381E090E002C0880FDD
:10026000991F6A95E2F7822B8BBB08952BB381E02F
:1002700090E002C0880F991F6A95E2F7809582236B
:100280008BBB0895413059F428B381E090E002C05F
:10029000880F991F6A95E2F7822B88BB089528B3CF
:1002A00081E090E002C0880F991F6A95E2F780957F
:1002B000822388BB0895413059F425B381E090E052
:1002C00002C0880F991F6A95E2F7822B85BB0895BB
:1002D00025B381E090E002C0880F991F6A95E2F78C
:1002E0008095822385BB0895413059F422B381E083
:1002F00090E002C0880F991F6A95E2F7822B82BBBB
:10030000089522B381E090E002C0880F991F6A959A
:10031000E2F78095822382BB08956295607F90E02A
:10032000FC01E154F109E432F105F8F4EE58FF4F15
:100330000C94F7048BB38F708BBB8BB3682B6BBBA8
:10034000089588B38F7088BB88B3682B68BB089505
:1003500085B38F7085BB85B3682B65BB089582B369
:100360008F7082BB82B3682B62BB089541E062E06C
:1003700082E40E941D018FE99FE00197F1F700C020
:10038000000040E062E082E40E941D018FE99FE0EE
:100390000197F1F700C000000895CF93C82F40E007
:1003A00060E082E40E941D016C2F62956F7081E411
:1003B0000E948D010E94B6016C2F81E40E948D0184
:1003C0000E94B6018FEC97E00197F1F700C00000A2
:1003D000CF9108952FEF81EE94E02150804090401E
:1003E000E1F700C0000041E064E081E40E94AD005C
:1003F00041E065E081E40E94AD0041E066E081E417
:100400000E94AD0041E067E081E40E94AD0041E060
:1004100062E082E40E94AD0041E061E082E40E947B
:10042000AD0041E060E082E40E94AD0040E061E0A8
:1004300082E40E941D0182E00E94CD018FE19EE4D2
:100440000197F1F700C0000088E20E94CD018FEC17
:1004500097E00197F1F700C0000081E00E94CD0114
:100460008FE19EE40197F1F700C000008CE00E944C
:10047000CD018FEC97E00197F1F700C0000086E016
:100480000E94CD018FEC97E00197F1F700C00000CA
:100490000895CF93C82F41E060E082E40E941D01DF
:1004A0006C2F62956F7081E40E948D010E94B601ED
:1004B0006C2F81E40E948D010E94B601CF910895B6
:1004C000CF93DF93EC0103C00E94490221968881FB
:1004D0008111FACFDF91CF91089581E00E94CD0183
:1004E0008FE19EE40197F1F700C0000008959FEFAF
:1004F000980F923070F4613170F4662371F081309E
:1005000019F48FE7860F0CC0823049F48FEB860F09
:1005100007C080E805C080E803C080E801C080E033
:100520000E94CD018FEC97E00197F1F700C0000029
:1005300008950E94EA0180E690E00E94600261E076
:1005400082E00E94770281E790E00E94600210E062
:10055000D0E0C0E001C0D0E080B3982F917080FF60
:1005600035C0C11133C0133088F5C1E0C10F60E060
:1005700070E084EB92E40E942B032FE38DE093E084
:10058000215080409040E1F700C0000060E070E042
:10059000CB010E942B036BE081E00E94770281E394
:1005A000810F0E944902C330A1F40E946D0282E8CB
:1005B00090E00E94600261E082E00E94770283E99D
:1005C00090E00E9460021C2FC1E007C0992321F037
:1005D00004C01C2FC1E001C0C0E080B3827090E075
:1005E00095958795813099F5D11131C0112379F115
:1005F000DFEFD10F60E070E084EB92E40E946403CF
:100600002FE38DE093E0215080409040E1F700C05F
:10061000000060E070E0CB010E9464030E946D0264
:1006200082EA90E00E9460028FE2810F0E944902FC
:100630008BE690E00E94600261E082E00E94770217
:1006400081E790E00E9460021D2FD1E085CF8823D2
:1006500009F481CF81CF2FB52E7F2FBD2FB522601A
:100660002FBD2EB528602EBD2EB520612EBD2EB516
:1006700021602EBD2EB52D7F2EBD2EB52B7F2EBD1C
:1006800021B3206221BB2FB52F7B2FBD2FB5206852
:100690002FBD21E63BE046EB5BE30E948A0420E0AD
:1006A00030E040EC5FE30E949E0320E030E04AE748
:1006B00054E40E948A040E940A047BBD6ABD8FE153
:1006C0009EE497BD86BD08952FB52E7F2FBD2FB513
:1006D00022602FBD2EB528602EBD2EB520612EBD07
:1006E0002EB521602EBD2EB52D7F2EBD2EB52B7FB4
:1006F0002EBD21B3206121BB2FB52F7E2FBD2FB57D
:1007000020622FBD21E63BE046EB5BE30E948A04BA
:1007100020E030E040EC5FE30E949E0320E030E008
:100720004AE754E40E948A040E940A0479BD68BD25
:100730008FE19EE497BD86BD08955058BB27AA2738
:100740000E94B5030C9450040E94420438F00E94A9
:10075000490420F039F49F3F19F426F40C943F0427
:100760000EF4E095E7FB0C943904E92F0E94610434
:1007700058F3BA17620773078407950720F079F4D6
:10078000A6F50C9483040EF4E0950B2EBA2FA02D41
:100790000B01B90190010C01CA01A0011124FF272E
:1007A000591B99F0593F50F4503E68F11A16F04029
:1007B000A22F232F342F4427585FF3CF4695379528
:1007C0002795A795F0405395C9F77EF41F16BA0BED
:1007D000620B730B840BBAF09150A1F0FF0FBB1F9B
:1007E000661F771F881FC2F70EC0BA0F621F731FE4
:1007F000841F48F4879577956795B795F7959E3F41
:1008000008F0B0CF9395880F08F09927EE0F9795D1
:10081000879508950E94690488F09F5798F0B92F32
:100820009927B751B0F0E1F0660F771F881F991F25
:100830001AF0BA95C9F714C0B13091F00E94830440
:10084000B1E008950C948304672F782F8827B85F50
:1008500039F0B93FCCF3869577956795B395D9F77D
:100860003EF490958095709561957F4F8F4F9F4F87
:10087000089597F99F6780E870E060E008959FEF22
:1008800080EC089500240A94161617061806090627
:10089000089500240A9412161306140605060895F6
:1008A000092E0394000C11F4882352F0BB0F40F47E
:1008B000BF2B11F460FF04C06F5F7F4F8F4F9F4FBE
:1008C000089557FD9058440F551F59F05F3F71F040
:1008D0004795880F97FB991F61F09F3F79F08795A7
:1008E0000895121613061406551FF2CF4695F1DF30
:1008F00008C0161617061806991FF1CF86957105C0
:10090000610508940895E894BB2766277727CB01F3
:1009100097F908950E949D040C9450040E9442048B
:1009200038F00E94490420F0952311F00C9439040A
:100930000C943F0411240C9484040E94610470F30D
:10094000959FC1F3950F50E0551F629FF001729F74
:10095000BB27F00DB11D639FAA27F00DB11DAA1F83
:10096000649F6627B00DA11D661F829F2227B00DD0
:10097000A11D621F739FB00DA11D621F839FA00D5B
:10098000611D221F749F3327A00D611D231F849FAB
:10099000600D211D822F762F6A2F11249F57504002
:1009A0009AF0F1F088234AF0EE0FFF1FBB1F661F7D
:1009B000771F881F91505040A9F79E3F510580F046
:1009C0000C9439040C9484045F3FE4F3983ED4F310
:1009D000869577956795B795F795E7959F5FC1F7EA
:1009E000FE2B880F911D9695879597F90895EE0F28
:0E09F000FF1F0590F491E02D0994F894FFCFBD
:1009FE007468657265206172652030206361727360
:100A0E00006761726167652068617320737061634E
:100A1E0065007468657265206172652033206361BC
:100A2E007273006761726167652069732066756C09
:0E0A3E006C00746865726520617265200000AE
:00000001FF
